:02000000452D8C
:100006007B15FB1F0D280130F300F201F101F00111
:08001600FA0DF20CFF300800A6
:0E001E00533083120313FD00FD0B132808005E
:10002C00243083120313FC00B530FD00FD0B1C289B
:0A003C00FC0B1C2800000000080067
:0E004600F201F101F001F801F30100300800B1
:10005400FB14FB1F3428FF30F300F200F100F00022
:08006400FA0DF20CFF30080058
:0C006C0000000000000000000000080080
:08007800FA1FF213003008002A
:1000800083120313F801F9011030FC00710DF80D13
:10009000F90D7408F8027508031C750FF9020318AE
:1000A00058287408F80775080318750FF907031026
:0A00B000F00DF10DFC0B46280800CE
:1000BA0083120313EC1B63288611642886156C1BB4
:1000CA006828061169280615EC1A6D2886106E280C
:1000DA0086146C1A72280610732806145B1877287F
:1000EA00061678280612861636208612EC197F28FC
:1000FA008611802886156C1984280611852806150C
:10010A00EC18892886108A2886146C188E280610FE
:10011A008F2806145B18932806169428061286164A
:10012A00362086125B1C9B2816209C280F2008006C
:10013A007C18D328FC18A4287C19F2289D28A00131
:10014A007208031DC4287108F2007008F1007808CB
:10015A00F000F801A0157208031DC4287108F20006
:10016A007008F100F001A01120167208031DC428BE
:10017A007108F200F101A01572080319E628200897
:10018A00F302031D031CEA280310F21BD328F80DFF
:10019A00F00DF10DF20DF30BCA28EA287B1B701C37
:1001AA00EE28F81FEE28F00A0319F10A0319F20AD9
:1001BA00031DEE28F20CF10CF00CF30A0319F228D5
:1001CA00EE280130FC002320F5280230FC00032031
:1001DA00F5280430FC003C20F5280830FC002A20D1
:0401EA000000080009
:1001EE00A0017208031D0C297108F2007008F100BD
:1001FE00F001A0157208031D0C297108F200F1011F
:10020E00A0112016720803191A292008F302031DE3
:10021E00031C1E290310F21B2229F00DF10DF20D05
:10022E00F30B12291E290130FC0023202529023050
:0E023E00FC00032025290430FC003C200800B1
:10024C00831203135B106708EC005D205B1408003D
:10025C0083120313EA0105306A0203183C296A0869
:10026C006907840020308000EA0A31296A0869078E
:10027C0084008001EA036A086907EB000A30F40085
:10028C00F5016708F0006808F10040207808F000DC
:10029C007908F1003030F0076B088400700880009A
:1002AC000A30F400F5016708F0006808F1004020FE
:1002BC007008E7007108E80000307106031D68291A
:1002CC0000307006031D6B296D29EA0341290800D3
:1002DC007B14FB1F7929F201FA1FFF30F200F100A9
:0A02EC00F000FA0DF20CFF300800DC
:1002F600243083120313FD00FD0B7F290000080044
:100306008312031372087606A000F801F901730838
:100316007702031CA6297708FD007308F7007D08FD
:10032600F3007608FD007208F6007D08F2007508F5
:10033600FD007108F5007D08F1007408FD007008E5
:10034600F4007D08F000770803191F2A7208FA00E6
:10035600F217F61777087302F7000319D929083040
:100366007702031CCF29F7007408F9007508F4001A
:100376007608F500F60108307702031CCF29F7004E
:100386007408F9007508F400F50108307702031CBB
:10039600CF297A08F2001F2A77080319D9290310F2
:1003A600F60CF50CF40CF90CF70BD229A01FE62974
:1003B600F909F409F509F609F90A0319F40A031902
:1003C600F50A0319F60A7908F80774080318740F72
:1003D600F00775080318750FF10776080318760FEE
:1003E600F207A01BFF29031C0F2AF20CF10CF00CDC
:1003F600F80CF30F0F2A1B2A0318132AF809F00921
:10040600F109F209F80A0319F00A0319F10A0319A6
:10041600F20A8030FA06172A0130FC009D20212AB4
:100426000230FC009D20212A0430FC00F720212AFE
:100436000830FC002A20212A0030FC0000000800B9
:06044600FB15FF30080069
:10044C0083120313DF01E0015E08F2005E08F30083
:10045C00720884000008203A031D392A5F086004E2
:10046C00031D392A462A0130DF000030E0007208F3
:10047C0084000008F0007308840070088000F30A00
:10048C007208F100F20A710884000008003A031D9A
:08049C002E2A5E08F0000800A2
:1004A400831203137408003A031D6D2A7508003A79
:1004B400031D6D2A7608003A031D6D2A7708003A59
:1004C400031D6D2AFF30F000FF30F1007F30F20091
:1004D400FF30F300082B8312031377080319FC2A57
:1004E40073080319FF2A720876068039FA00F21796
:1004F400F617A0017208F8007108FC007008FD00EE
:100504007408FD027508031C750FFC027608031CB1
:10051400760FF802F801FC01FD01031C982A031070
:10052400F20CF10CF00CF80C0130A0007708F30287
:10053400031CA22A7E302007F3070318022BA72AE4
:100544007E302007F307031C052B1830FA07FD0D36
:10055400FC0DF80DF00DF10DF20DA00D7408F00274
:100564007508031C750FF1027608031C760FF2025E
:10057400760DA004201CC02A7D14CB2A7408F00731
:1005840075080318750FF10776080318760AF20741
:100594007D10FA031F307A05031DA92A7B1B7D1CDD
:1005A400F22A0310F00DF10DF20DA00D7408F00203
:1005B4007508031C750FF1027608031C760FF2020E
:1005C400760D20040139FD070318FC0A0319F80A03
:1005D400031DF22AF80CFC0CFD0CF30A0319022B80
:1005E400FA1FF8137808F2007C08F1007D08F00087
:1005F4000030072B01302322072B02302320072B46
:0E06040004302A20072B0830032000000800D5
:100612001B2B803083120313DE002E2BC030DE0032
:100622002E2B9430DE002E2BD430DE002E2B803089
:10063200DE002E2B831203135E08013A03190A2BE4
:100642005E08023A03190F2B5E08033A0319122BB4
:100652005E08043A0319152B182B5F03F0005E089D
:10066200F0077008DE007008EC005D205B10E1010D
:1006720061086007840000080319472B61086007BE
:1006820084000008E7002621E10A392B5B140800E8
:0C069200831203138030F6068321080059
:10069E0083120313E301E4015E08E5005F08E60040
:1006AE0080305F06F00080307002031D602B00303A
:1006BE005E0203186E2B0130E3000030E4005E088A
:1006CE00003CE5005F08031C013EE601E6026508FA
:1006DE00E7006608E8006008E9002E210630E10018
:1006EE000030E2006208003C031D7F2B6108003CD5
:1006FE0003189A2B61086007F20001306102F000C6
:10070E000030031C013E6202F10070086007840095
:10071E000008F00072088400700880000130E102C9
:10072E00031CE203792B60088400203080006308EC
:10073E0064040319B82BE101E2016108600784002B
:10074E000008203A031DAF2BE10A0319E20AA42B7D
:10075E000130E102031CE2036108600784002D30C2
:04076E0080000800FF
:10077200831203137008F8007108F000F101F2010E
:10078200F301FB01FC019630F300FA017008F1005D
:0C0792007808F000F801F201F7200800E0
:10079E0083120313FB01730803190C2C7208FA0061
:1007AE00F2178E30F302F31F0F2CF309F30A083001
:1007BE007302031CF22BF300F10D7208F100F2012B
:1007CE0008307302031CF22BF300F10DF1017308D4
:1007DE00031D0310FA2B73080319FA2B0310F20CE6
:1007EE00F10CF30BF52B7B1B711C042C031C042C3E
:1007FE00F10A0319F20AF21B1B2CFA1F1E2CF20926
:10080E00F109F10A0319F20A1E2CF201F1011E2C54
:10081E007B14FB1F212CF201FA1F212CFF30F2005A
:10082E00F100FA0DF20C212C0130FC00232C0030CB
:10083E00FC00232CFF30FC00FC080319272C6E2132
:0A084E007108F0007208F1000800C4
:0E0858008312031350088A004F088200080024
:10086600831203139F01C0309F042109F000700812
:1008760083169F051F179F1783125E08F000F00D61
:100886007010F00D7010F00D701070089F041F149A
:100896007B211F151F1D512C00004D2C1F101E08FB
:1008A600F100F00183161E08F0040030F104080080
:0A08B60083120313081388130800CF
:1008C00083120313081388170818692C881C692CD5
:0808D0006A2C642C5B24080073
:1008D8008316031386120612061086100611861157
:1008E800831286120612861106118610061016202B
:1008F8001620162086140614861636208612162010
:10090800861636208612162086163620861216205F
:10091800061086163620861216208616362086126F
:10092800861086158616362086121620861106141D
:10093800861636208612061086163620861216204F
:10094800861636208612061486163620861216203B
:100958000610861636208612861506158614061485
:0C09680086163620861216205B1408004C
:1009740083120313DE013324B9230A30F400D73081
:10098400F5002330F6008230F70052227008F4009C
:100994007108F5007208F6007308F7000030F000E3
:1009A4000030F1004830F2008530F3004923CF23B2
:1009B4007008DC007108DD007008DE007108DF00DB
:1009C4005430E0004F230230DE000130DF002F30CE
:1009D400E00009235430DE0026227008E0000230D3
:1009E400DE000930DF0009232530E700262120300E
:1009F400E700262180305D06F00080307002031D80
:100A0400052D41305C02031C092D86100A2D861425
:0A0A14005C08F0005D08F100080026
:100A1E008312031308178813081C182D8818182D15
:080A2E00192D132D5B240800B3
:100A36008316031308148814081388135B2408000C
:100A46002C248A110A128000840ACF0A0319D00ABC
:080A5600F003031D232D08002D
:100A5E00FF3083120313D100FF30D200FF30D300DA
:100A6E00FF309F01C0309F042109F00070088316EB
:0C0A7E009F051F179F1783121F1408000C
:100A8A00C8251B252F256C240130EC005D200C3075
:100A9A00EC005D200130DE000130DF004530E0006F
:100AAA0009230230DE000130DF003830E00009237C
:100ABA000230FB004530FC00A930FD00FD0B632D20
:100ACA00FC0B632DFB0B632D000000000130EC00D2
:100ADA005D200130DE000130DF002230E000092312
:100AEA00BA248030F200803071067202031D7F2D15
:100AFA007008463C0318832D0F25842D602403308B
:100B0A00FB008A30FC005530FD00FD0B8A2DFC0BE2
:0E0B1A008A2DFB0B8A2D00000000752D932DF7
:100B9000213084002E3083120313F0009930CF00EF
:080BA0000530D00023250800F8
:020B32000F347E
:100B34004C344934473448345434203453344534E1
:0A0B44004E3453344F345234003461
:100B4E004C34693467346834743420343D34203482
:020B5E00003461
:100B60004C344934473448345434203453345934A1
:0A0B70005334543445344D3400343E
:100B7A004134553454344F344D3441345434493467
:040B8A0043340034BC
:00000001FF
